:020000040800F2
:100000000050002085100008CD100008CD10000819
:10001000CD100008CD100008CD1000080000000031
:10002000000000000000000000000000CD100008EB
:10003000CD10000800000000CD1000085D01000890
:10004000CD100008CD100008CD100008CD1000081C
:10005000CD100008CD1000086D0100087B010008DC
:10006000CD1000088901000897010008CD10000894
:10007000CD100008CD100008CD100008CD100008EC
:10008000CD100008CD1000082D020008B9010008AD
:10009000CD010008D9010008E5010008A50100080C
:1000A000CD100008CD100008CD100008CD100008BC
:1000B000F101000805020008CD100008CD1000086D
:1000C000CD100008CD100008CD100008CD1000089C
:1000D000CD100008CD10000819020008CD1000084E
:1000E000CD100008CD100008CD1000080000000061
:1000F0000000000000000000000000000000000000
:0C01000000000000000000005FF808F1A3
:10010C0010B5054C237833B9044B13B10448AFF345
:10011C0000800123237010BD70000020000000003F
:10012C00684F000808B5034B1BB103490348AFF3F4
:10013C00008008BD0000000074000020684F00081B
:10014C00034613F8012B002AFBD1181A013870470B
:10015C0080B500AF00F0FCFF02F05AFB00BF80BD81
:10016C0080B500AF012002F0C7FD00BF80BD80B597
:10017C0000AF022002F0C0FD00BF80BD80B500AF13
:10018C00082002F0B9FD00BF80BD80B500AF102083
:10019C0002F0B2FD00BF80BD80B500AF202002F0A0
:1001AC00ABFD402002F0A8FD00BF80BD80B500AFC4
:1001BC00024802F004F800BF80BD00BFDC03002041
:1001CC0080B400AF00BFBD4680BC704780B400AFA8
:1001DC0000BFBD4680BC704780B400AF00BFBD46B9
:1001EC0080BC704780B500AF024803F04DFA00BFE9
:1001FC0080BD00BF5801002080B500AF024803F05D
:10020C0043FA00BF80BD00BFE000002080B500AF06
:10021C00024803F0CDFC00BF80BD00BFA001002050
:10022C0080B500AF024801F049F900BF80BD00BFA6
:10023C00280100200FB480B582B000AF07F1140381
:10024C007B607A6839690A4804F064FA0848FFF759
:10025C0077FF03469AB24FF0FF330549054803F088
:10026C00F7FB00BF0837BD46BDE8804004B07047BF
:10027C00E8010020A001002080B500AF00F022FFB3
:10028C00382000F045F800F0CDF800F06DF90122AF
:10029C0019491A4803F067FC00F01CFC00F0BEFC86
:1002AC0000F08EFA00F08EFB1548FFF7C3FF1548DF
:1002BC00FFF7C0FF1248FFF7BDFF1148FFF7BAFF69
:1002CC001148FFF7B7FF0E48FFF7B4FF40F20341A8
:1002DC000E4801F04FFF0346002B01D000F09EF8B2
:1002EC000A4801F013FD0346002B01D000F096F8EC
:1002FC0000F0BCFCFEE700BFDC000020A0010020E9
:10030C00804F0008B04F0008E04F0008DC030020CD
:10031C0080B592B000AF0346FB7107F11C03282295
:10032C000021184604F0D8F907F1080300221A60DE
:10033C005A609A60DA601A610323FB610123FB6245
:10034C004FF480333B620123FB6210233B63022397
:10035C00BB630023FB63FB79482B23D0482B56DC73
:10036C00242B02D0382B0ED051E04FF4E0133B6419
:10037C000F23BB600223FB6000233B6100237B61E6
:10038C000023BB6123E04FF440133B640F23BB609D
:10039C000223FB6000233B614FF480637B610023ED
:1003AC00BB6114E00123FB614FF480333B624FF4DB
:1003BC008033FB634FF4E0133B640223FB600023A8
:1003CC003B614FF480637B610023BB6100BF07F18D
:1003DC001C03184602F0A8FC07F10803022118467A
:1003EC0002F022FF03F05EF878647B6C0A4AA2FBF1
:1003FC0003239B09184602F0E2F9042002F0ECF901
:10040C00002200214FF0FF3002F0AFF900E000BFF6
:10041C004837BD4680BD00BFD34D621080B400AFDD
:10042C00FEE7000080B586B000AF4B4B9B694A4A93
:10043C0043F004039361484B9B6903F004037B6016
:10044C007B68454B9B69444A43F008039361424BDC
:10045C009B6903F008033B603B6807F1080300222B
:10046C001A605A609A60DA604FF47173BB600123B2
:10047C00FB6000233B6102237B6107F108031946F3
:10048C00364802F085FA2023BB6007F108031946B1
:10049C00334802F07DFA0123BB60324BFB60022330
:1004AC003B6107F1080319462D4802F071FA02234B
:1004BC00BB6007F108031946284802F069FA0823C3
:1004CC00BB6007F108031946244802F061FA1023B7
:1004DC00BB6007F108031946204802F059FA2023A3
:1004EC00BB6007F1080319461C4802F051FA40237F
:1004FC00BB6007F108031946184802F049FA0022BC
:10050C000A21062002F031F9062002F04AF90022F5
:10051C000A21072002F029F9072002F042F90022F3
:10052C000A21092002F021F9092002F03AF90022EF
:10053C000A210A2002F019F90A2002F032F90022ED
:10054C000A21172002F011F9172002F02AF900BF36
:10055C001837BD4680BD00BF00100240000C0140A2
:10056C00000801400000111080B500AF114B124A79
:10057C001A60104B4FF4E1325A600E4B00229A6015
:10058C000C4B0022DA600B4B00221A61094B0C2237
:10059C005A61084B00229A61064B0022DA61054829
:1005AC0003F006FA0346002B01D0FFF737FF00BF1C
:1005BC0080BD00BFA00100200044004080B58CB07D
:1005CC0000AF0346FB8000F0D5FDF862FB88012BE1
:1005DC0012D16B4B1B68FA6AD31AC82B0CD90121A8
:1005EC00684802F059FB0346012B02D1664802F021
:1005FC00F9FF634AFB6A1360FB88022B40D1634B03
:10060C001B68FA6AD31AC82B3AD90221604802F047
:10061C0043FB0346012B30D15E4B1B78042B1AD1C4
:10062C0002237B6240F251637B610023FB61022356
:10063C003B6207F1100307F10F0207F11401564852
:10064C0001F0A8FB0346002B01D0FFF7E7FE514B4E
:10065C0000221A7011E0514B1B78002B0CBF0123A8
:10066C000023DBB21A464D4B1A7000F0E3F8494BED
:10067C001B780133DAB2474B1A70444AFB6A136099
:10068C00FB88082B1BD1464B1B68FA6AD31AC82B64
:10069C0015D908213E4802F0FFFA0346012B0BD175
:1006AC00404B1B78002B0CBF01230023DBB21A46F6
:1006BC003C4B1A7000F0BEF8394AFB6A1360FB8899
:1006CC00102B1BD1384B1B68FA6AD31AC82B15D9BF
:1006DC0010212F4802F0E0FA0346012B0BD1334BCB
:1006EC001B78002B0CBF01230023DBB21A462F4BC7
:1006FC001A7000F09FF82C4AFB6A1360FB88202BC1
:10070C001BD12B4B1B68FA6AD31AC82B15D9202185
:10071C001F4802F0C1FA0346012B0BD1254B1B7865
:10072C00002B0CBF01230023DBB21A46214B1A709D
:10073C0000F080F81E4AFB6A1360FB88402B1BD12B
:10074C001D4B1B68FA6AD31AC82B15D940211048C7
:10075C0002F0A2FA0346012B0BD1184B1B78002B8D
:10076C000CBF01230023DBB21A46144B1A7000F0A5
:10077C0061F8114AFB6A136000BF3037BD4680BD7B
:10078C00B80000200008014058010020BC000020E7
:10079C00000C0140B4000020DC0300208C00002081
:1007AC00C00000208E000020C40000208F0000201C
:1007BC00C800002090000020CC0000208D000020FC
:1007CC0080B500AF194B1A4A1A60184B00229A6078
:1007DC00164B01225A76154B0122DA76134B002266
:1007EC009A76124B00221A77104B00221A770F4B75
:1007FC0000221A760D4B00225A770C4B04225A60B9
:10080C000A4B0022DA60094B4FF420221A61074B85
:10081C004FF480125A61054801F0B4F80346002BDE
:10082C0001D0FFF7FBFD00BF80BD00BFDC03002043
:10083C000064004080B588B000AF07F108030022C7
:10084C001A605A609A60DA601A615A6100237B6000
:10085C000023FB700523BB614FF44073BB60002386
:10086C003B6100237B61184B1B785B005AB2174B22
:10087C001B785BB213435AB2154B1B789B005BB2CF
:10088C0013435AB2134B1B78DB005BB213435AB2BF
:10089C00114B1B781B015BB213435BB2DBB2FB70D9
:1008AC0004210E4802F00FFA3B1DFA1C07F1080157
:1008BC000B4801F06FFA0346002B01D0FFF7AEFD99
:1008CC0000BF2037BD4680BD8D0000208C0000206D
:1008DC008E0000208F00002090000020000C0140B2
:1008EC00DC03002080B588B000AF07F108030022BC
:1008FC001A605A609A60DA601A615A6100237B6050
:10090C000023FB700123BB614FF40073BB60002319
:10091C003B6100237B610C4B1B88DBB2FB70042119
:10092C000A4802F0D0F93B1DFA1C07F108010848EF
:10093C0001F030FA0346002B01D0FFF76FFD00BF2A
:10094C002037BD4680BD00BF92000020000C014046
:10095C00DC03002080B588B000AF07F1080300224B
:10096C001A605A609A60DA601A615A6100237B60DF
:10097C000023FB700123BB614FF48073BB60002329
:10098C003B6100237B610C4B1B88DBB2FB700421A9
:10099C000A4802F098F93B1DFA1C07F108010848B7
:1009AC0001F0F8F90346002B01D0FFF737FD00BF2B
:1009BC002037BD4680BD00BF94000020000C0140D4
:1009CC00DC03002080B58AB000AF01233B6200231A
:1009DC007B6100233B6100233B6000237B60002391
:1009EC00BB600023FB600023BB610123FB613B4622
:1009FC001946064801F0C1F80346002B01D0FFF759
:100A0C000DFD00BF2837BD4680BD00BFDC030020B4
:100A1C0080B483B000AF786000BF0C37BD4680BC9B
:100A2C00704780B483B000AF786000BF0C37BD4610
:100A3C0080BC704780B483B000AF786000BF0C37C7
:100A4C00BD4680BC7047000080B584B000AF7860B4
:100A5C0007F10803134A0021134801F06AFA034610
:100A6C00002B01D0FFF7DAFC0E4B1B6840F25162F1
:100A7C00934212D10B4BDB68002B0ED13B7A1B023D
:100A8C007A7A134319460948FFF7D4FB084B012225
:100A9C001A702021074802F016F900BF1037BD4626
:100AAC0080BD00BF98000020DC0300203C500008F3
:100ABC00910000200008014080B582B000AF786042
:100ACC000348FFF7B7FB00BF0837BD4680BD00BF2A
:100ADC006050000880B500AF0C4B4FF080421A609C
:100AEC000A4B00229A60094B41F2DF525A60074BC5
:100AFC0040F2E732DA60054802F024FD0346002B91
:100B0C0001D0FFF78BFC00BF80BD00BF5801002057
:100B1C0080B586B000AF78607B681B68B3F1804FFE
:100B2C0017D107F10C0300221A605A609A60012356
:100B3C00FB6001233B6105237B6107F10C03194624
:100B4C00064800F083FD064B01221A70034800F0A2
:100B5C00F3FB00BF1837BD4680BD00BF2801002045
:100B6C00B500002080B586B000AF7860786800F0E2
:100B7C0099FC7861244B1B78012B28D17A69134698
:100B8C001B019B1A1B011A46204BA3FB0213D21A02
:100B9C0052081344DB0A9AB21D4B1A8007F1080362
:100BAC0000221A605A609A600423BB600123FB6028
:100BBC0005233B6107F108031946164800F046FD72
:100BCC00114B04221A70134800F0B6FB18E00E4BC0
:100BDC001B78042B14D17B69642202FB03F20B4BB0
:100BEC00A3FB0213D21A52081344DB0A9AB20A4B23
:100BFC001A80FFF777FEFFF7ADFE034B00221A7049
:100C0C0000BF1837BD4680BDB500002001011000A3
:100C1C0092000020280100209400002080B500AF35
:100C2C000B4B0C4A1A600A4B00229A60084B41F29B
:100C3C00DF525A60064B40F2E732DA60044802F0A9
:100C4C0081FC0346002B01D0FFF7E8FB00BF80BD01
:100C5C00E00000200004004080B483B000AF786056
:100C6C0000BF0C37BD4680BC7047000080B584B017
:100C7C0000AF3B1D00221A605A609A60184B194A4B
:100C8C001A60174B00229A60154B00221A73144BF2
:100C9C0000221A75124B4FF46022DA61104B0022BD
:100CAC005A600F4B01221A610D4800F06DFA034691
:100CBC00002B01D0FFF7B2FB01237B600123BB604B
:100CCC000523FB603B1D1946054800F0BFFC03469D
:100CDC00002B01D0FFF7A2FB00BF1037BD4680BD33
:100CEC00280100200024014080B584B000AF03200F
:100CFC0001F030FD204B5B6A1F4A43F4E023536242
:100D0C00002200216FF00B0001F02FFD00220021CA
:100D1C006FF00A0001F029FD002200216FF009009C
:100D2C0001F023FD154B9B69144A43F001039361B9
:100D3C00124B9B6903F00103BB60BB680F4BDB6973
:100D4C000E4A43F08053D3610C4BDB6903F08053A4
:100D5C007B607B680A4B5B68FB60FB6823F0E0639D
:100D6C00FB60FB6843F00073FB60054AFB68536053
:100D7C0000BF1037BD4680BD00ED00E00010024002
:100D8C000000014080B588B000AF786007F1100317
:100D9C0000221A605A609A60DA607B681B681F4AEE
:100DAC00934237D11E4BDB691D4A43F40033D361A8
:100DBC001B4BDB6903F40033FB60FB68184B9B692E
:100DCC00174A43F004039361154B9B6903F004032A
:100DDC00BB60BB6804233B6102237B610323FB6183
:100DEC0007F1100319460F4801F0D2FD08233B61AF
:100DFC0000237B610023BB6107F1100319460948EE
:100E0C0001F0C6FD00220021262001F0AEFC2620B8
:100E1C0001F0C7FC00BF2037BD4680BD0044004038
:100E2C00001002400008014080B588B000AF786027
:100E3C002F4BDB692E4A43F00073D3612C4BDB69DB
:100E4C0003F00073FB60FB68294B9B69284A43F055
:100E5C0004039361264B9B6903F00403BB60BB68DE
:100E6C0007F1100300221A605A609A60DA604FF49E
:100E7C0000633B6100237B610023BB6107F110031E
:100E8C0019461C4801F084FD4FF480533B6102234A
:100E9C007B610323FB610023BB6107F1100319463F
:100EAC00144801F075FD00220F21132001F05DFCA8
:100EBC0000220F21142001F058FC00220F211420D5
:100ECC0001F053FC00220F21162001F04EFC1320E0
:100EDC0001F067FC142001F064FC142001F061FCAB
:100EEC00162001F05EFC00BF2037BD4680BD00BF60
:100EFC00001002400008014080B584B000AF78605B
:100F0C007B681B68B3F1804F14D1194BDB69184A0D
:100F1C0043F00103D361164BDB6903F00103FB6063
:100F2C00FB681C2001F03DFC00220D211C2001F06F
:100F3C001CFC18E07B681B680E4A934213D10C4BC7
:100F4C00DB690B4A43F00203D361094BDB6903F005
:100F5C000203BB60BB681D2001F023FC00220E21A4
:100F6C001D2001F002FC00BF1037BD4680BD00BF44
:100F7C00001002400004004080B588B000AF7860DB
:100F8C0007F1100300221A605A609A60DA607B68DD
:100F9C001B68184A934229D1174B9B69164A43F494
:100FAC0000739361144B9B6903F40073FB60FB6843
:100FBC00114B9B69104A43F0040393610E4B9B69E0
:100FCC0003F00403BB60BB6812233B6103237B610A
:100FDC0007F110031946094801F0DAFC0022002140
:100FEC00122001F0C2FB122001F0DBFB00BF203706
:100FFC00BD4680BD002401400010024000080140A5
:10100C0080B586B000AF7860144A154BD31A7B615B
:10101C007B693B61134B1B68002B02D1114B124AAD
:10102C001A60104B1A687B6813443A699A4207D2CB
:10103C0003F028FB03460C221A604FF0FF3309E043
:10104C00084B1B68FB60074B1A687B681344054A06
:10105C001360FB6818461837BD4680BD0050002051
:10106C0000040000D00000208004002080B400AFF9
:10107C0000BFBD4680BC7047FFF7F8FF0B480C491A
:10108C000C4A002302E0D458C4500433C4188C42D8
:10109C00F9D3094A094C002301E013600432A2423F
:1010AC00FBD303F0F5FAFFF7E7F8704700000020D8
:1010BC0070000020E0500008700000207C0400202C
:1010CC00FEE7000080B500AF084B1B68074A43F0F1
:1010DC0010031360032001F03DFB0F2000F008F813
:1010EC00FFF702FE0023184680BD00BF002002401F
:1010FC0080B582B000AF7860124B1A68124B1B7827
:10110C0019464FF47A73B3FBF1F3B2FBF3F31846C1
:10111C0001F055FB0346002B01D001230EE07B6848
:10112C000F2B0AD8002279684FF0FF3001F01DFB1D
:10113C00064A7B681360002300E001231846083739
:10114C00BD4680BD000000200800002004000020E7
:10115C0080B400AF054B1B781A46054B1B68134433
:10116C00034A136000BFBD4680BC704708000020D6
:10117C006804002080B400AF024B1B681846BD46C3
:10118C0080BC70476804002080B586B000AF7860E2
:10119C000023FB7500233B610023BB600023FB6035
:1011AC007B68002B01D10123BEE07B689B68002B80
:1011BC007B689B6A002B09D17B680022DA627B6812
:1011CC00002283F824207868FFF7D6FE786800F0B8
:1011DC008FFB0346FB757B689B6A03F01003002BA7
:1011EC0040F09980FB7D002B40F095807B689B6ADA
:1011FC0023F4885323F0020343F002027B689A62C3
:10120C007B685A687B68DB691A437B681B7B5B00D5
:10121C001343BA681343BB607B689B68B3F5807F4C
:10122C0003D07B689B68012B02D14FF4807300E0E4
:10123C0000233A6913433B617B681B7D012B19D159
:10124C007B681B7B002B09D17B689B69013B5A0394
:10125C003B69134343F400633B610BE07B689B6A7F
:10126C0043F020027B689A627B68DB6A43F00102E0
:10127C007B68DA627B681B685B6823F469417B6876
:10128C001B683A690A435A607B681B689A68284B4A
:10129C0013407A681268B9680B4393607B689B684B
:1012AC00B3F5807F03D07B689B68012B04D17B68EE
:1012BC001B69013B1B05FB607B681B68DB6A23F425
:1012CC0070017B681B68FA680A43DA627B681B68EA
:1012DC009A68184B1340BA689A420BD17B6800226B
:1012EC00DA627B689B6A23F0030343F001027B689C
:1012FC009A6218E07B689B6A23F0120343F0100299
:10130C007B689A627B68DB6A43F001027B68DA6275
:10131C000123FB7507E07B689B6A43F010027B6836
:10132C009A620123FB75FB7D18461837BD4680BDBC
:10133C00FDF7E1FFFE0E1FFF80B584B000AF7860B3
:10134C000023FB737B6893F82430012B01D102231B
:10135C00A0E07B68012283F82420786800F06EFA04
:10136C000346FB73FB7B002B40F08F807B689B6AF2
:10137C0023F4706323F0010343F480727B689A6258
:10138C007B681B68454A934205D1454B5B6803F467
:10139C007023002B15D17B689B6A23F480127B6829
:1013AC009A627B681B685B6803F48063002B26D011
:1013BC007B689B6A23F4405343F480527B689A62A7
:1013CC001DE07B689B6A43F480127B689A627B68A1
:1013DC001B68334A934204D07B681B682F4A9342A4
:1013EC000DD12F4B5B6803F48063002B07D07B6817
:1013FC009B6A23F4405343F480527B689A627B6867
:10140C009B6A03F48053002B06D07B68DB6A23F0C5
:10141C0006027B68DA6202E07B680022DA627B6893
:10142C00002283F824207B681B686FF002021A608C
:10143C007B681B685A687B681B6842F020025A6004
:10144C007B681B689B6803F46023B3F5602F13D192
:10145C007B681B68114A934205D1114B5B6803F4FE
:10146C007023002B08D17B681B689A687B681B680B
:10147C0042F4A0029A600CE07B681B689A687B6857
:10148C001B6842F480129A6003E07B68002283F8A8
:10149C002420FB7B18461037BD4680BD0028014038
:1014AC000024014080B483B000AF78607B681B6877
:1014BC00DB6C18460C37BD4680BC704780B584B0D9
:1014CC0000AF78607B681B681B68FB607B681B68DF
:1014DC005B68BB60BB6803F02003002B3ED0FB684D
:1014EC0003F00203002B39D07B689B6A03F01003D6
:1014FC00002B05D17B689B6A43F400727B689A626F
:10150C007B681B689B6803F46023B3F5602F1DD1C7
:10151C007B681B7B002B19D17B681B685A687B6826
:10152C001B6822F020025A607B689B6A23F480724D
:10153C007B689A627B689B6A03F48053002B05D10D
:10154C007B689B6A43F001027B689A627868FFF7BC
:10155C0009FB7B681B686FF012021A60BB6803F012
:10156C008003002B4DD0FB6803F00403002B48D004
:10157C007B689B6A03F01003002B05D17B689B6A88
:10158C0043F400527B689A627B681B689B6803F487
:10159C00E043B3F5E04F12D07B681B685B6803F443
:1015AC008063002B25D17B681B689B6803F4602348
:1015BC00B3F5602F1DD17B681B7B002B19D17B6889
:1015CC001B685A687B681B6822F080025A607B6833
:1015DC009B6A23F480527B689A627B689B6A03F453
:1015EC008073002B05D17B689B6A43F001027B68FA
:1015FC009A62786800F0BDF97B681B686FF00C028A
:10160C001A60BB6803F04003002B12D0FB6803F098
:10161C000103002B0DD07B689B6A43F480327B68FE
:10162C009A62786800F009F87B681B686FF0010219
:10163C001A6000BF1037BD4680BD80B483B000AFC8
:10164C00786000BF0C37BD4680BC704780B485B055
:10165C0000AF786039600023FB730023BB607B68AC
:10166C0093F82430012B01D10223DCE07B680122AA
:10167C0083F824203B685B68062B1CD87B681B68AE
:10168C00596B3B685A6813469B001344053B1F2259
:10169C0002FA03F3DB4319403B6818683B685A684D
:1016AC0013469B001344053B00FA03F27B681B684E
:1016BC000A435A633CE03B685B680C2B1CD87B6884
:1016CC001B68196B3B685A6813469B001344233BF9
:1016DC001F2202FA03F3DB4319403B6818683B688E
:1016EC005A6813469B001344233B00FA03F27B68B1
:1016FC001B680A431A631BE07B681B68D96A3B684A
:10170C005A6813469B001344413B1F2202FA03F311
:10171C00DB4319403B6818683B685A6813469B00CA
:10172C001344413B00FA03F27B681B680A43DA62FC
:10173C003B681B68092B1CD97B681B68D9683B6804
:10174C001A6813465B0013441E3B072202FA03F38C
:10175C00DB4319403B6898683B681A6813465B008A
:10176C0013441E3B00FA03F27B681B680A43DA60E1
:10177C0019E07B681B6819693B681A6813465B00A3
:10178C001344072202FA03F3DB4319403B689868C1
:10179C003B681A6813465B00134400FA03F27B683B
:1017AC001B680A431A613B681B68102B03D03B680B
:1017BC001B68112B32D17B681B681D4A934225D1C3
:1017CC007B681B689B6803F40003002B26D17B68A5
:1017DC001B689A687B681B6842F400029A603B683D
:1017EC001B68102B1AD1134B1B68134AA2FB032343
:1017FC009A0C13469B0013445B00BB6002E0BB6871
:10180C00013BBB60BB68002BF9D107E07B689B6A8E
:10181C0043F020027B689A620123FB737B680022F1
:10182C0083F82420FB7B18461437BD4680BC7047D8
:10183C00002401400000002083DE1B4380B584B0EF
:10184C0000AF78600023FB600023BB607B681B68E3
:10185C009B6803F00103012B40D07B681B689A68DE
:10186C007B681B6842F001029A601F4B1B681F4A81
:10187C00A2FB03239B0CBB6002E0BB68013BBB607B
:10188C00BB68002BF9D1FFF775FCF8601FE0FFF780
:10189C0071FC0246FB68D31A022B18D97B681B68B3
:1018AC009B6803F00103012B11D07B689B6A43F00A
:1018BC0010027B689A627B68DB6A43F001027B68EA
:1018CC00DA627B68002283F82420012307E07B681E
:1018DC001B689B6803F00103012BD8D10023184629
:1018EC001037BD4680BD00BF0000002083DE1B43C7
:1018FC0080B584B000AF78600023FB607B681B6808
:10190C009B6803F00103012B2ED17B681B689A683E
:10191C007B681B6822F001029A60FFF72BFCF860D1
:10192C001BE0FFF727FC0246FB68D31A022B14D9E5
:10193C007B681B689B6803F00103012B0DD17B684E
:10194C009B6A43F010027B689A627B68DB6A43F007
:10195C0001027B68DA62012307E07B681B689B68E5
:10196C0003F00103012BDCD0002318461037BD46D1
:10197C0080BD80B483B000AF786000BF0C37BD462B
:10198C0080BC704780B584B000AF78607B68002B5A
:10199C0001D10123EDE07B6893F82030DBB2002B02
:1019AC0002D17868FFF740FA7B681B681A687B687D
:1019BC001B6842F001021A60FFF7DCFBF86012E0D2
:1019CC00FFF7D8FB0246FB68D31A0A2B0BD97B68AE
:1019DC005B6A43F400327B685A627B68052283F8A9
:1019EC0020200123C5E07B681B685B6803F00103C2
:1019FC00002BE5D07B681B681A687B681B6822F09B
:101A0C0002021A60FFF7B6FBF86012E0FFF7B2FBB8
:101A1C000246FB68D31A0A2B0BD97B685B6A43F42A
:101A2C0000327B685A627B68052283F820200123F0
:101A3C009FE07B681B685B6803F00203002BE5D119
:101A4C007B681B7E012B08D17B681B681A687B683E
:101A5C001B6842F080021A6007E07B681B681A68FA
:101A6C007B681B6822F080021A607B685B7E012B0E
:101A7C0008D17B681B681A687B681B6842F04002BF
:101A8C001A6007E07B681B681A687B681B6822F089
:101A9C0040021A607B689B7E012B08D17B681B6817
:101AAC001A687B681B6842F020021A6007E07B68AA
:101ABC001B681A687B681B6822F020021A607B681E
:101ACC00DB7E012B08D17B681B681A687B681B685E
:101ADC0022F010021A6007E07B681B681A687B68AA
:101AEC001B6842F010021A607B681B7F012B08D127
:101AFC007B681B681A687B681B6842F008021A60D6
:101B0C0007E07B681B681A687B681B6822F0080278
:101B1C001A607B685B7F012B08D17B681B681A6895
:101B2C007B681B6842F004021A6007E07B681B6844
:101B3C001A687B681B6822F004021A607B689A683A
:101B4C007B68DB681A437B681B691A437B685B699B
:101B5C0042EA03017B685B685A1E7B681B680A4378
:101B6C00DA617B6800225A627B68012283F82020AC
:101B7C00002318461037BD4680BD80B487B000AF37
:101B8C00786039607B681B687B617B6893F82030D8
:101B9C00FB74FB7C012B03D0FB7C022B40F0AA8056
:101BAC007B69D3F8003243F001027B69C3F8002251
:101BBC003B685B6903F01F03012202FA03F3FB602D
:101BCC007B69D3F81C22FB68DB431A407B69C3F8A2
:101BDC001C223B68DB69002B23D17B69D3F80C22D8
:101BEC00FB68DB431A407B69C3F80C223B68DB685B
:101BFC0019043B685B689BB23A68526919437B696C
:101C0C00483243F832103B689B6819043B681B68E8
:101C1C009AB23B685B690A4379694833DB000B4431
:101C2C005A603B68DB69012B22D17B69D3F80C220B
:101C3C00FB681A437B69C3F80C223B681B681904C8
:101C4C003B685B689BB23A68526919437B694832BE
:101C5C0043F832103B689B6819043B68DB689AB206
:101C6C003B685B690A4379694833DB000B445A6073
:101C7C003B689B69002B09D17B69D3F80422FB6874
:101C8C00DB431A407B69C3F8042207E07B69D3F875
:101C9C000422FB681A437B69C3F804223B681B6966
:101CAC00002B09D17B69D3F81422FB68DB431A4063
:101CBC007B69C3F8142207E07B69D3F81422FB6814
:101CCC001A437B69C3F814223B681B6A012B07D1AA
:101CDC007B69D3F81C22FB681A437B69C3F81C226E
:101CEC007B69D3F8003223F001027B69C3F8002230
:101CFC00002306E07B685B6A43F480227B685A62AF
:101D0C00012318461C37BD4680BC704780B584B093
:101D1C0000AF78607B6893F82030DBB2012B2ED1BA
:101D2C007B68022283F820207B681B681A687B681A
:101D3C001B6822F001021A60FFF71CFAF86012E02F
:101D4C00FFF718FA0246FB68D31A0A2B0BD97B68EB
:101D5C005B6A43F400327B685A627B68052283F825
:101D6C002020012312E07B681B685B6803F00103F1
:101D7C00002BE5D17B6800225A62002306E07B68C9
:101D8C005B6A43F400227B685A62012318461037C1
:101D9C00BD4680BD80B489B000AFF860B9607A6090
:101DAC003B60FB6893F82030FB77FB681B689B68F3
:101DBC00BB61FB7F012B03D0FB7F022B40F0AD807E
:101DCC00BB6903F08063002B0AD1BB6903F000638D
:101DDC00002B05D1BB6903F08053002B00F09580DC
:101DEC00BB691B0E03F003037B6101227B699A40E4
:101DFC003B681A60BB689B68002B0DD1BB681B68E5
:101E0C005A05BB68DB68F96809681A437B691833A3
:101E1C001B010B441A600FE0BB685B68DA00BB68FF
:101E2C009B681A43BB68DB68F96809681A437B69CD
:101E3C0018331B010B441A60FB681968BB681A69DC
:101E4C007B6918331B010B4404331A60BB681B7D80
:101E5C00012B11D1FB681A687B6918331B011344E1
:101E6C0004331B68FA68116843F480727B69183379
:101E7C001B010B4404331A607B6807331B781A066A
:101E8C007B6806331B781B041A437B6805331B786D
:101E9C001B0213437A68043212781046FA681168F0
:101EAC0043EA00027B691B010B4403F5C6731A60FD
:101EBC007B6803331B781A067B6802331B781B0480
:101ECC001A437B6801331B781B0213437A68127820
:101EDC001046FA68116843EA00027B691B010B4447
:101EEC0003F5C4731A60FB681A687B6918331B010D
:101EFC0013441B68FA68116843F001027B691833BC
:101F0C001B010B441A6000230EE0FB685B6A43F470
:101F1C000012FB685A62012306E0FB685B6A43F41B
:101F2C008022FB685A62012318462437BD4680BCC8
:101F3C00704780B487B000AFF860B9607A603B60DE
:101F4C00FB6893F82030FB75FB7D012B03D0FB7DE8
:101F5C00022B40F00381BB68002B0ED1FB681B6881
:101F6C00DB6803F00303002B16D1FB685B6A43F4B8
:101F7C000012FB685A620123F7E0FB681B681B69BF
:101F8C0003F00303002B07D1FB685B6A43F40012D8
:101F9C00FB685A620123E8E0FB681A68BB681B33D4
:101FAC001B0113441B6803F004027B689A607B6876
:101FBC009B68002B0CD1FB681A68BB681B331B0198
:101FCC0013441B685B0DC3F30A027B681A600BE0B9
:101FDC00FB681A68BB681B331B0113441B68DB08C6
:101FEC0023F060427B685A60FB681A68BB681B333D
:101FFC001B0113441B6803F002027B68DA60FB6868
:10200C001A68BB681B331B01134404331B6803F0B1
:10201C000803002B03D07B6808221A610BE0FB68D5
:10202C001A68BB681B331B01134404331B6803F091
:10203C000F027B681A61FB681A68BB681B331B01B3
:10204C00134404331B681B0ADAB27B689A61FB6881
:10205C001A68BB681B331B01134404331B681B0C2D
:10206C009AB27B685A61FB681A68BB681B011344FF
:10207C0003F5DC731B68DAB23B681A70FB681A68EC
:10208C00BB681B01134403F5DC731B681A0A3B681D
:10209C000133D2B21A70FB681A68BB681B01134477
:1020AC0003F5DC731B681A0C3B680233D2B21A704E
:1020BC00FB681A68BB681B01134403F5DC731B68CF
:1020CC001A0E3B680333D2B21A70FB681A68BB68ED
:1020DC001B01134403F5DE731A683B680433D2B258
:1020EC001A70FB681A68BB681B01134403F5DE7396
:1020FC001B681A0A3B680533D2B21A70FB681A685F
:10210C00BB681B01134403F5DE731B681A0C3B6898
:10211C000633D2B21A70FB681A68BB681B011344F1
:10212C0003F5DE731B681A0E3B680733D2B21A70C4
:10213C00BB68002B08D1FB681B68DA68FB681B685E
:10214C0042F02002DA6007E0FB681B681A69FB6842
:10215C001B6842F020021A61002306E0FB685B6AF0
:10216C0043F48022FB685A62012318461C37BD4693
:10217C0080BC704780B485B000AF786039607B68F4
:10218C0093F82030FB73FB7B012B02D0FB7B022BE3
:10219C0009D17B681B6859697B681B683A680A43DC
:1021AC005A61002306E07B685B6A43F480227B68FB
:1021BC005A62012318461437BD4680BC704780B55F
:1021CC008AB000AF786000237B627B681B685B6918
:1021DC003B627B681B685B68FB617B681B689B6868
:1021EC00BB617B681B68DB687B617B681B681B6958
:1021FC003B617B681B689B69FB603B6A03F00103D6
:10220C00002B7CD0BB6903F00103002B23D07B682F
:10221C001B6801229A60BB6903F00203002B03D0F8
:10222C007868FEF7F5FB16E0BB6903F00403002B9E
:10223C0004D07B6A43F400637B620CE0BB6903F05F
:10224C000803002B04D07B6A43F480537B6202E0CA
:10225C00786800F06BF9BB6903F48073002B24D011
:10226C007B681B684FF480729A60BB6903F400733F
:10227C00002B03D07868FEF7D4FB16E0BB6903F49F
:10228C008063002B04D07B6A43F400537B620CE028
:10229C00BB6903F40063002B04D07B6A43F48043D6
:1022AC007B6202E0786800F04AF9BB6903F4803382
:1022BC00002B24D07B681B684FF480329A60BB697A
:1022CC0003F40033002B03D07868FEF7B3FB16E061
:1022DC00BB6903F48023002B04D07B6A43F40043D6
:1022EC007B620CE0BB6903F40023002B04D07B6AF7
:1022FC0043F480337B6202E0786800F029F93B6A92
:10230C0003F00803002B0CD07B6903F01003002BA7
:10231C0007D07B6A43F400737B627B681B681022D6
:10232C00DA603B6A03F00403002B0BD07B6903F0EB
:10233C000803002B06D07B681B680822DA607868DB
:10234C0000F00FF93B6A03F00203002B09D07B6805
:10235C001B68DB6803F00303002B02D07868FEF7E0
:10236C0073FB3B6A03F04003002B0CD03B6903F07A
:10237C001003002B07D07B6A43F480637B627B687D
:10238C001B6810221A613B6A03F02003002B0BD050
:10239C003B6903F00803002B06D07B681B680822FE
:1023AC001A61786800F0EFF83B6A03F01003002B19
:1023BC0009D07B681B681B6903F00303002B02D058
:1023CC00786800F0D7F83B6A03F40033002B0BD08D
:1023DC00FB6903F01003002B06D07B681B681022EE
:1023EC005A60786800F0D8F83B6A03F48033002B0D
:1023FC000BD0FB6903F00803002B06D07B681B682D
:10240C0008225A60786800F0D0F83B6A03F4004365
:10241C00002B7BD0FB6903F00403002B72D03B6ACA
:10242C0003F48073002B08D0FB6803F00103002B2E
:10243C0003D07B6A43F001037B623B6A03F40073B5
:10244C00002B08D0FB6803F00203002B03D07B6A3F
:10245C0043F002037B623B6A03F48063002B08D0D9
:10246C00FB6803F00403002B03D07B6A43F00403E6
:10247C007B623B6A03F40063002B43D0FB6803F0E0
:10248C007003002B3ED0FB6803F07003602B2BD045
:10249C00602B2ED8502B22D0502B2AD8402B19D061
:1024AC00402B26D8302B10D0302B22D8102B02D01A
:1024BC00202B05D01DE07B6A43F008037B6219E0FA
:1024CC007B6A43F010037B6214E07B6A43F02003C9
:1024DC007B620FE07B6A43F040037B620AE07B6A1D
:1024EC0043F080037B6205E07B6A43F480737B627C
:1024FC0000E000BF7B681B689A697B681B6822F050
:10250C0070029A617B681B6804225A607B6A002BFC
:10251C0008D07B685A6A7B6A1A437B685A6278686F
:10252C00FEF7CAFA00BF2837BD4680BD80B483B021
:10253C0000AF786000BF0C37BD4680BC704780B4DC
:10254C0083B000AF786000BF0C37BD4680BC7047CD
:10255C0080B483B000AF786000BF0C37BD4680BC40
:10256C00704780B483B000AF786000BF0C37BD46B5
:10257C0080BC704780B483B000AF786000BF0C376C
:10258C00BD4680BC704780B483B000AF786000BF9C
:10259C000C37BD4680BC704780B483B000AF786008
:1025AC0000BF0C37BD4680BC704780B483B000AF11
:1025BC00786000BF0C37BD4680BC704780B485B0D6
:1025CC0000AF78607B6803F00703FB600C4BDB68A3
:1025DC00BB60BA684FF6FF031340BB60FB681A027E
:1025EC00BB68134343F0BF6343F40033BB60044A3E
:1025FC00BB68D36000BF1437BD4680BC704700BFBA
:10260C0000ED00E080B400AF044BDB681B0A03F064
:10261C0007031846BD4680BC704700BF00ED00E0C4
:10262C0080B483B000AF0346FB7197F90730002BE1
:10263C000BDBFB7903F01F02064997F907305B09A6
:10264C00012000FA02F241F8232000BF0C37BD46EE
:10265C0080BC704700E100E080B483B000AF03465B
:10266C003960FB7197F90730002B0ADB3B68DAB253
:10267C000C4997F907301201D2B20B4483F80023AE
:10268C000AE03B68DAB20849FB7903F00F03043B1C
:10269C001201D2B20B441A7600BF0C37BD4680BC77
:1026AC00704700BF00E100E000ED00E080B489B0AD
:1026BC0000AFF860B9607A60FB6803F00703FB6158
:1026CC00FB69C3F10703042B28BF0423BB61FB691F
:1026DC000433062B02D9FB69033B00E000237B612A
:1026EC004FF0FF32BB6902FA03F3DA43BB681A40BE
:1026FC007B699A404FF0FF317B6901FA03F3D943B0
:10270C007B680B40134318462437BD4680BC70478A
:10271C0080B582B000AF78607B68013BB3F1807FFD
:10272C0001D301230FE00A4A7B68013B53600F2160
:10273C004FF0FF30FFF790FF054B00229A60044BDF
:10274C0007221A60002318460837BD4680BD00BF1B
:10275C0010E000E080B582B000AF78607868FFF7D9
:10276C002DFF00BF0837BD4680BD80B586B000AFD9
:10277C000346B9607A60FB7300237B61FFF742FF6D
:10278C0078617A68B9687869FFF790FF024697F923
:10279C000F3011461846FFF75FFF00BF1837BD46D4
:1027AC0080BD80B582B000AF0346FB7197F907304E
:1027BC001846FFF735FF00BF0837BD4680BD80B512
:1027CC0082B000AF78607868FFF7A2FF0346184626
:1027DC000837BD4680BD000080B483B000AF786080
:1027EC007B68042B06D1094B1B68084A43F0040391
:1027FC00136005E0054B1B68044A23F004031360C7
:10280C0000BF0C37BD4680BC704700BF10E000E035
:10281C0080B500AF00F002F800BF80BD80B400AFFF
:10282C0000BFBD4680BC704780B485B000AF7860F7
:10283C000023FB737B6893F82130DBB2022B08D0AA
:10284C007B6804229A637B68002283F82020012392
:10285C0020E07B681B681A687B681B6822F00E02FC
:10286C001A607B681B681A687B681B6822F001027F
:10287C001A607B681A6C7B68DB6B012101FA02F22F
:10288C005A607B68012283F821207B68002283F840
:10289C002020FB7B18461437BD4680BC70470000D7
:1028AC0080B584B000AF78600023FB737B6893F82D
:1028BC002130DBB2022B05D07B6804229A63012302
:1028CC00FB7351E07B681B681A687B681B6822F0FD
:1028DC000E021A607B681B681A687B681B6822F002
:1028EC0001021A607B681B68224A934229D07B68DC
:1028FC001B68214A934222D07B681B681F4A934273
:10290C001AD07B681B681E4A934212D07B681B68E6
:10291C001C4A93420AD07B681B681B4A934202D123
:10292C004FF480130EE04FF080730BE04FF48033C4
:10293C0008E04FF4805305E04FF4807302E010235D
:10294C0000E00123114A53607B68012283F82120A7
:10295C007B68002283F820207B685B6B002B03D004
:10296C007B685B6B78689847FB7B18461037BD46D5
:10297C0080BD00BF080002401C0002403000024035
:10298C0044000240580002406C000240000002402B
:10299C0080B48BB000AF7860396000237B62002379
:1029AC003B6269E101227B6A02FA03F3FB613B683B
:1029BC001B68FA691340BB61BA69FB699A4240F023
:1029CC0058813B685B689A4A93425ED0984A93421E
:1029DC0075D8984A934258D0964A93426FD8964AE3
:1029EC00934252D0944A934269D8944A93424CD021
:1029FC00924A934263D8924A934246D0904A934269
:102A0C005DD8122B2AD8122B59D801A252F823F0D8
:102A1C00972A0008712A0008832A0008C52A000892
:102A2C00CB2A0008CB2A0008CB2A0008CB2A0008A6
:102A3C00CB2A0008CB2A0008CB2A0008CB2A000896
:102A4C00CB2A0008CB2A0008CB2A0008CB2A000886
:102A5C00CB2A0008792A00088D2A0008794A93426B
:102A6C0013D02CE03B68DB683B6229E03B68DB68F9
:102A7C0004333B6224E03B68DB6808333B621FE0B5
:102A8C003B68DB680C333B621AE03B689B68002BAD
:102A9C0002D104233B6213E03B689B68012B05D1F8
:102AAC0008233B627B68FA691A6109E008233B62E0
:102ABC007B68FA695A6103E000233B6200E000BFC7
:102ACC00BB69FF2B01D87B6801E07B6804337B6119
:102ADC00BB69FF2B02D87B6A9B0002E07B6A083B38
:102AEC009B003B617B691A680F213B6901FA03F378
:102AFC00DB431A40396A3B6901FA03F31A437B69D9
:102B0C001A603B685B6803F08053002B00F0B180C7
:102B1C004D4B9B694C4A43F0010393614A4B9B69B3
:102B2C0003F00103BB60BB68484A7B6A9B08023315
:102B3C0052F82330FB607B6A03F003039B000F22E7
:102B4C0002FA03F3DB43FA681340FB607B68404AEC
:102B5C00934213D07B683F4A93420DD07B683E4A28
:102B6C00934207D07B683D4A934201D1032306E090
:102B7C00042304E0022302E0012300E000237A6A2C
:102B8C0002F0030292009340FA681343FB602F4952
:102B9C007B6A9B080233FA6841F823203B685B6828
:102BAC0003F48013002B06D02D4B9A682C49BB697B
:102BBC0013438B6006E02A4B9A68BB69DB432849B8
:102BCC0013408B603B685B6803F40013002B06D04A
:102BDC00234BDA682249BB691343CB6006E0204BD8
:102BEC00DA68BB69DB431E491340CB603B685B680A
:102BFC0003F40033002B06D0194B5A681849BB69F3
:102C0C0013434B6006E0164B5A68BB69DB4314490F
:102C1C0013404B603B685B6803F48033002B21D07E
:102C2C000F4B1A680E49BB6913430B6021E000BFC0
:102C3C0000003210000031100000221000002110A2
:102C4C0000001210000011100010024000000140A2
:102C5C0000080140000C014000100140001401402C
:102C6C00000401400B4B1A68BB69DB430949134054
:102C7C000B607B6A01337B623B681A687B6A22FAC1
:102C8C0003F3002B7FF48EAE00BF00BF2C37BD4684
:102C9C0080BC70470004014080B485B000AF786000
:102CAC000B467B807B689A687B881340002B02D094
:102CBC000123FB7301E00023FB73FB7B18461437E5
:102CCC00BD4680BC704780B485B000AF78600B46C1
:102CDC007B807B68DB68FB607A88FB6813401A0496
:102CEC00FB68D9437B880B401A437B681A6100BF91
:102CFC001437BD4680BC704780B582B000AF034628
:102D0C00FB80084B5A69FB881340002B06D0054A00
:102D1C00FB885361FB881846FDF750FC00BF083751
:102D2C00BD4680BD0004014080B586B000AF786020
:102D3C007B68002B01D101236CE27B681B6803F0DC
:102D4C000103002B00F08780924B5B6803F00C03AF
:102D5C00042B0CD08F4B5B6803F00C03082B12D1A7
:102D6C008C4B5B6803F48033B3F5803F0BD1894BFC
:102D7C001B6803F40033002B6CD07B685B68002B62
:102D8C0068D1012346E27B685B68B3F5803F06D1CE
:102D9C00804B1B687F4A43F4803313602EE07B68C2
:102DAC005B68002B0CD17B4B1B687A4A23F4803375
:102DBC001360784B1B68774A23F4802313601DE063
:102DCC007B685B68B3F5A02F0CD1724B1B68714A02
:102DDC0043F4802313606F4B1B686E4A43F48033BB
:102DEC0013600BE06B4B1B686A4A23F4803313604F
:102DFC00684B1B68674A23F4802313607B685B680D
:102E0C00002B13D0FEF7B6F9386108E0FEF7B2F9E3
:102E1C0002463B69D31A642B01D90323FAE15D4BBB
:102E2C001B6803F40033002BF0D014E0FEF7A2F97A
:102E3C00386108E0FEF79EF902463B69D31A642B11
:102E4C0001D90323E6E1534B1B6803F40033002B39
:102E5C00F0D100E000BF7B681B6803F00203002B7D
:102E6C0063D04C4B5B6803F00C03002B0BD0494B2D
:102E7C005B6803F00C03082B1CD1464B5B6803F416
:102E8C008033002B16D1434B1B6803F00203002B3D
:102E9C0005D07B681B69012B01D00123BAE13D4BA6
:102EAC001B6823F0F8027B685B69DB00394913432C
:102EBC000B603AE07B681B69002B20D0364B01225B
:102ECC001A60FEF757F9386108E0FEF753F902462D
:102EDC003B69D31A022B01D903239BE12D4B1B68B1
:102EEC0003F00203002BF0D02A4B1B6823F0F802EE
:102EFC007B685B69DB00274913430B6015E0264BAD
:102F0C0000221A60FEF736F9386108E0FEF732F954
:102F1C0002463B69D31A022B01D903237AE11D4BDC
:102F2C001B6803F00203002BF0D17B681B6803F0D5
:102F3C000803002B3AD07B689B69002B19D0174BE8
:102F4C0001221A60FEF716F9386108E0FEF712F953
:102F5C0002463B69D31A022B01D903235AE10D4BCC
:102F6C005B6A03F00203002BF0D0012000F0CCFAD6
:102F7C001CE00A4B00221A60FEF7FCF838610FE0E7
:102F8C00FEF7F8F802463B69D31A022B08D9032343
:102F9C0040E100BF00100240000042428004424267
:102FAC009E4B5B6A03F00203002BE9D17B681B6824
:102FBC0003F00403002B00F0A6800023FB75974B55
:102FCC00DB6903F08053002B0DD1944BDB69934AE2
:102FDC0043F08053D361914BDB6903F08053BB60AA
:102FEC00BB680123FB758E4B1B6803F48073002BAD
:102FFC0018D18B4B1B688A4A43F480731360FEF71D
:10300C00B9F8386108E0FEF7B5F802463B69D31A07
:10301C00642B01D90323FDE0814B1B6803F48073FF
:10302C00002BF0D07B68DB68012B06D17B4B1B6A35
:10303C007A4A43F0010313622DE07B68DB68002BB6
:10304C000CD1764B1B6A754A23F001031362734B48
:10305C001B6A724A23F0040313621CE07B68DB6872
:10306C00052B0CD16D4B1B6A6C4A43F004031362A5
:10307C006A4B1B6A694A43F0010313620BE0674B0E
:10308C001B6A664A23F001031362644B1B6A634A92
:10309C0023F0040313627B68DB68002B15D0FEF76A
:1030AC0069F838610AE0FEF765F802463B69D31A05
:1030BC0041F28832934201D90323ABE0574B1B6A90
:1030CC0003F00203002BEED014E0FEF753F8386146
:1030DC000AE0FEF74FF802463B69D31A41F28832F8
:1030EC00934201D9032395E04C4B1B6A03F0020376
:1030FC00002BEED1FB7D012B05D1484BDB69474AF8
:10310C0023F08053D3617B68DB69002B00F0818056
:10311C00424B5B6803F00C03082B61D07B68DB69C6
:10312C00022B46D13F4B00221A60FEF723F8386180
:10313C0008E0FEF71FF802463B69D31A022B01D9AF
:10314C00032367E0354B1B6803F00073002BF0D1B1
:10315C007B681B6AB3F5803F08D1304B5B6823F466
:10316C0000327B689B682D4913434B602B4B5B688B
:10317C0023F474127B68196A7B685B6A0B432749DA
:10318C0013434B60274B01221A60FDF7F3FF3861A4
:10319C0008E0FDF7EFFF02463B69D31A022B01D979
:1031AC00032337E01D4B1B6803F00073002BF0D09A
:1031BC002FE01C4B00221A60FDF7DCFF386108E0A1
:1031CC00FDF7D8FF02463B69D31A022B01D9032322
:1031DC0020E0124B1B6803F00073002BF0D118E0B9
:1031EC007B68DB69012B01D1012313E00B4B5B687E
:1031FC00FB60FB6803F480327B681B6A9A4206D141
:10320C00FB6803F470127B685B6A9A4201D001235D
:10321C0000E0002318461837BD4680BD0010024060
:10322C00007000406000424280B584B000AF78600E
:10323C0039607B68002B01D10123D0E06A4B1B68FD
:10324C0003F007033A689A4210D9674B1B6823F0C6
:10325C00070265493B6813430B60634B1B6803F023
:10326C0007033A689A4201D00123B8E07B681B68D7
:10327C0003F00203002B20D07B681B6803F00403CF
:10328C00002B05D0594B5B68584A43F4E0635360FC
:10329C007B681B6803F00803002B05D0534B5B685D
:1032AC00524A43F460535360504B5B6823F0F00276
:1032BC007B689B684D4913434B607B681B6803F02C
:1032CC000103002B40D07B685B68012B07D1474B77
:1032DC001B6803F40033002B15D101237FE07B68BE
:1032EC005B68022B07D1414B1B6803F00073002B6A
:1032FC0009D1012373E03D4B1B6803F00203002B43
:10330C0001D101236BE0394B5B6823F003027B682E
:10331C005B68364913434B60FDF72CFFF8600AE0FD
:10332C00FDF728FF0246FB68D31A41F2883293421C
:10333C0001D9032353E02D4B5B6803F00C027B682F
:10334C005B689B009A42EBD1274B1B6803F0070389
:10335C003A689A4210D2244B1B6823F00702224988
:10336C003B6813430B60204B1B6803F007033A6860
:10337C009A4201D0012332E07B681B6803F00403FE
:10338C00002B08D0194B5B6823F4E0627B68DB6888
:10339C00164913434B607B681B6803F00803002B32
:1033AC0009D0124B5B6823F460527B681B69DB000D
:1033BC000E4913434B6000F021F802460B4B5B683F
:1033CC001B0903F00F030A49CB5C22FA03F3094AE9
:1033DC001360094B1B681846FDF78AFE002318463C
:1033EC001037BD4680BD00BF0020024000100240D7
:1033FC0078500008000000200400002080B487B042
:10340C0000AF0023FB600023BB6000237B61002323
:10341C007B6000233B611E4B5B68FB60FB6803F029
:10342C000C03042B02D0082B03D027E0194B3B6173
:10343C0027E0FB689B0C03F00F03174AD35C7B60FF
:10344C00FB6803F48033002B10D0114B5B685B0CD2
:10345C0003F00103114AD35CBB607B680D4A02FB8D
:10346C0003F2BB68B2FBF3F37B6104E07B680C4AAC
:10347C0002FB03F37B617B693B6102E0054B3B6123
:10348C0000BF3B6918461C37BD4680BC704700BF67
:10349C000010024000127A0090500008A050000862
:1034AC0000093D0080B400AF024B1B681846BD46B6
:1034BC0080BC70470000002080B500AFFFF7F2FF22
:1034CC000246054B5B681B0A03F007030349CB5C00
:1034DC0022FA03F3184680BD001002408850000801
:1034EC0080B500AFFFF7DEFF0246054B5B68DB0AD9
:1034FC0003F007030349CB5C22FA03F3184680BDA3
:10350C00001002408850000880B485B000AF78608D
:10351C000A4B1B680A4AA2FB03235B0A7A6802FB6C
:10352C0003F3FB6000BFFB685A1EFA60002BF9D155
:10353C0000BF00BF1437BD4680BC704700000020A0
:10354C00D34D621080B582B000AF78607B68002BE1
:10355C0001D1012341E07B6893F83D30DBB2002BB5
:10356C0006D17B68002283F83C207868FDF7C4FC08
:10357C007B68022283F83D207B681A687B680433E1
:10358C001946104600F094F97B68012283F8462016
:10359C007B68012283F83E207B68012283F83F2060
:1035AC007B68012283F840207B68012283F841204C
:1035BC007B68012283F842207B68012283F8432038
:1035CC007B68012283F844207B68012283F8452024
:1035DC007B68012283F83D20002318460837BD463E
:1035EC0080BD000080B485B000AF78607B6893F834
:1035FC003D30DBB2012B01D001233AE07B68022283
:10360C0083F83D207B681B68DA687B681B6842F096
:10361C000102DA607B681B68184A93420ED07B6803
:10362C001B68B3F1804F09D07B681B68144A934226
:10363C0004D07B681B68134A934211D17B681B68CA
:10364C009B6803F00703FB60FB68062B10D07B68BC
:10365C001B681A687B681B6842F001021A6007E05D
:10366C007B681B681A687B681B6842F001021A6051
:10367C00002318461437BD4680BC7047002C01400F
:10368C00000400400008004080B584B000AF7860B2
:10369C007B681B68DB68FB607B681B681B69BB6015
:1036AC00BB6803F00203002B20D0FB6803F002037D
:1036BC00002B1BD07B681B686FF002021A617B68C1
:1036CC0001221A777B681B689B6903F00303002BAC
:1036DC0003D0786800F0D1F805E0786800F0C4F801
:1036EC00786800F0D3F87B6800221A77BB6803F087
:1036FC000403002B20D0FB6803F00403002B1BD029
:10370C007B681B686FF004021A617B6802221A77CF
:10371C007B681B689B6903F44073002B03D07868AB
:10372C0000F0ABF805E0786800F09EF8786800F0DF
:10373C00ADF87B6800221A77BB6803F00803002BF6
:10374C0020D0FB6803F00803002B1BD07B681B68A0
:10375C006FF008021A617B6804221A777B681B6879
:10376C00DB6903F00303002B03D0786800F085F8C5
:10377C0005E0786800F078F8786800F087F87B68E6
:10378C0000221A77BB6803F01003002B20D0FB68D3
:10379C0003F01003002B1BD07B681B686FF010022A
:1037AC001A617B6808221A777B681B68DB6903F453
:1037BC004073002B03D0786800F05FF805E0786860
:1037CC0000F052F8786800F061F87B6800221A77F4
:1037DC00BB6803F00103002B0CD0FB6803F0010362
:1037EC00002B07D07B681B686FF001021A617868A8
:1037FC00FDF78EF9BB6803F08003002B0CD0FB683F
:10380C0003F08003002B07D07B681B686FF08002ED
:10381C001A61786800F0C3F8BB6803F04003002B12
:10382C000CD0FB6803F04003002B07D07B681B68AF
:10383C006FF040021A61786800F031F8BB6803F051
:10384C002003002B0CD0FB6803F02003002B07D0C7
:10385C007B681B686FF020021A61786800F096F89C
:10386C0000BF1037BD4680BD80B483B000AF786018
:10387C0000BF0C37BD4680BC704780B483B000AF2E
:10388C00786000BF0C37BD4680BC704780B483B0F5
:10389C0000AF786000BF0C37BD4680BC704780B469
:1038AC0083B000AF786000BF0C37BD4680BC70475A
:1038BC0080B485B000AF786039607B681B68FB60B2
:1038CC007B682F4A93420BD07B68B3F1804F07D0B3
:1038DC007B682C4A934203D07B682B4A934208D1D5
:1038EC00FB6823F07003FB603B685B68FA6813436A
:1038FC00FB607B68224A93420BD07B68B3F1804F0C
:10390C0007D07B681F4A934203D07B681E4A9342C0
:10391C0008D1FB6823F44073FB603B68DB68FA68F2
:10392C001343FB60FB6823F080023B685B69134325
:10393C00FB607B68FA681A603B689A687B68DA629D
:10394C003B681A687B689A627B680D4A934203D184
:10395C003B681A697B681A637B6801225A617B6831
:10396C001B6903F00103002B05D07B681B6923F056
:10397C0001027B681A6100BF1437BD4680BC7047DA
:10398C00002C0140000400400008004080B483B0CB
:10399C0000AF786000BF0C37BD4680BC704780B468
:1039AC0083B000AF786000BF0C37BD4680BC704759
:1039BC0080B582B000AF78607B68002B01D1012309
:1039CC0042E07B6893F84130DBB2002B06D17B6878
:1039DC00002283F840207868FDF7D4F97B68242214
:1039EC0083F841207B681B68DA687B681B6822F4CB
:1039FC000052DA60786800F0B7FD7B681B681A69C2
:103A0C007B681B6822F490421A617B681B685A69B8
:103A1C007B681B6822F02A025A617B681B68DA6893
:103A2C007B681B6842F40052DA607B6800225A649F
:103A3C007B68202283F841207B68202283F8422077
:103A4C007B6800225A63002318460837BD4680BDA8
:103A5C0080B58AB002AFF860B9603B601346FB805A
:103A6C0000237B61FB6893F84130DBB2202B75D1CE
:103A7C00BB68002B02D0FB88002B01D101236EE028
:103A8C00FB6800225A64FB68212283F84120FDF771
:103A9C0071FB7861FB68FA889A84FB68FA88DA848F
:103AAC00FB689B68B3F5805F08D1FB681B69002B32
:103ABC0004D10023FB61BB68BB6103E0BB68FB6105
:103ACC000023BB612EE03B6800937B6900228021C0
:103ADC00F86800F01CFB0346002B05D0FB68202285
:103AEC0083F8412003233AE0FB69002B0BD1BB691F
:103AFC001B881A46FB681B68C2F308025A60BB6934
:103B0C000233BB6107E0FB691A78FB681B685A60DB
:103B1C00FB690133FB61FB68DB8C9BB2013B9AB206
:103B2C00FB68DA84FB68DB8C9BB2002BCBD13B6847
:103B3C0000937B6900224021F86800F0E8FA034604
:103B4C00002B05D0FB68202283F84120032306E0DC
:103B5C00FB68202283F84120002300E00223184652
:103B6C002037BD4680BD80B584B000AFF860B96029
:103B7C001346FB80FB6893F84230DBB2202B12D14A
:103B8C00BB68002B02D0FB88002B01D101230BE07A
:103B9C00FB6800221A63FB881A46B968F86800F0C3
:103BAC000FFB034600E0022318461037BD4680BDCC
:103BBC0080B5BAB000AF78607B681B681B68C7F82B
:103BCC00E4307B681B68DB68C7F8E0307B681B68F7
:103BDC005B69C7F8DC300023C7F8D8300023C7F87E
:103BEC00D430D7F8E43003F00F03C7F8D830D7F847
:103BFC00D830002B0FD1D7F8E43003F02003002B82
:103C0C0009D0D7F8E03003F02003002B03D07868FC
:103C1C0000F0ECFB5BE2D7F8D830002B00F0DE8034
:103C2C00D7F8DC3003F00103002B06D1D7F8E030D5
:103C3C0003F49073002B00F0D180D7F8E43003F03C
:103C4C000103002B0BD0D7F8E03003F48073002B6A
:103C5C0005D07B685B6C43F001027B685A64D7F833
:103C6C00E43003F00403002B0BD0D7F8DC3003F066
:103C7C000103002B05D07B685B6C43F002027B6870
:103C8C005A64D7F8E43003F00203002B0BD0D7F8BA
:103C9C00DC3003F00103002B05D07B685B6C43F038
:103CAC0004027B685A64D7F8E43003F00803002B55
:103CBC0011D0D7F8E03003F02003002B05D1D7F852
:103CCC00DC3003F00103002B05D07B685B6C43F008
:103CDC0008027B685A647B685B6C002B00F0F281F5
:103CEC00D7F8E43003F02003002B08D0D7F8E030ED
:103CFC0003F02003002B02D0786800F077FB7B6880
:103D0C001B685B6903F04003002B14BF01230023E5
:103D1C00DBB2C7F8D4307B685B6C03F00803002B74
:103D2C0003D1D7F8D430002B4FD0786800F081FA4B
:103D3C007B681B685B6903F04003002B41D07B68F8
:103D4C001B681433C7F89C30D7F89C3053E8003FFD
:103D5C00C7F89830D7F8983023F04003C7F8D03024
:103D6C007B681B681433D7F8D020C7F8A820C7F895
:103D7C00A430D7F8A410D7F8A82041E80023C7F83E
:103D8C00A030D7F8A030002BD9D17B68DB6B002B8F
:103D9C0013D07B68DB6B7E4A5A637B68DB6B1846FF
:103DAC00FEF77EFD0346002B16D07B68DB6B5B6B4E
:103DBC007A68D26B104698470EE0786800F093F959
:103DCC000AE0786800F08FF906E0786800F08BF96B
:103DDC007B6800225A6475E100BF73E17B681B6B42
:103DEC00012B40F04F81D7F8E43003F01003002B87
:103DFC0000F04881D7F8E03003F01003002B00F0FE
:103E0C0041810023BB607B681B681B68BB607B68BF
:103E1C001B685B68BB60BB687B681B685B6903F0F5
:103E2C004003002B00F0B6807B68DB6B1B685B6883
:103E3C00A7F8BE30B7F8BE30002B00F045817B6888
:103E4C009B8DB7F8BE209A4280F03E817B68B7F814
:103E5C00BE20DA857B68DB6B9B69202B00F08880A9
:103E6C007B681B680C33C7F88830D7F8883053E868
:103E7C00003FC7F88430D7F8843023F48073C7F838
:103E8C00B8307B681B680C33D7F8B820C7F894207F
:103E9C00C7F89030D7F89010D7F8942041E8002359
:103EAC00C7F88C30D7F88C30002BD9D17B681B68C5
:103EBC0014337B677B6F53E8003F3B673B6F23F00A
:103ECC000103C7F8B4307B681B681433D7F8B420EF
:103EDC00C7F88020FB67F96FD7F8802041E80023F2
:103EEC00BB67BB6F002BE1D17B681B6814333B664F
:103EFC003B6E53E8003FFB65FB6D23F04003C7F8B6
:103F0C00B0307B681B681433D7F8B020FA66BB66F8
:103F1C00B96EFA6E41E800237B667B6E002BE3D111
:103F2C007B68202283F842207B6800221A637B681E
:103F3C001B680C33FB64FB6C53E8003FBB64BB6C2D
:103F4C0023F01003C7F8AC307B681B680C33D7F830
:103F5C00AC20BA657B65796DBA6D41E800233B6591
:103F6C003B6D002BE3D17B68DB6B1846FEF75CFCEA
:103F7C007B6802225A637B689A8D7B68DB8D9BB2CF
:103F8C00D31A9BB21946786800F0B6F89CE000BFD3
:103F9C00034300087B689A8D7B68DB8D9BB2D31A38
:103FAC00A7F8CE307B68DB8D9BB2002B00F08E80A7
:103FBC00B7F8CE30002B00F089807B681B680C337F
:103FCC00BB63BB6B53E8003F7B637B6B23F4907349
:103FDC00C7F8C8307B681B680C33D7F8C8207A64E4
:103FEC003B64396C7A6C41E80023FB63FB6B002B60
:103FFC00E3D17B681B6814337B627B6A53E8003F18
:10400C003B623B6A23F00103C7F8C4307B681B6832
:10401C001433D7F8C4203A63FB62F96A3A6B41E86F
:10402C000023BB62BB6A002BE3D17B68202283F8A0
:10403C0042207B6800221A637B681B680C333B614F
:10404C003B6953E8003FFB60FB6823F01003C7F8A3
:10405C00C0307B681B680C33D7F8C020FA61BB6199
:10406C00B969FA6941E800237B617B69002BE3D1D4
:10407C007B6802225A63B7F8CE301946786800F094
:10408C003BF823E0D7F8E43003F08003002B09D091
:10409C00D7F8E03003F08003002B03D0786800F0F1
:1040AC003EF914E0D7F8E43003F04003002B0ED0B7
:1040BC00D7F8E03003F04003002B08D0786800F00C
:1040CC007DF904E000BF02E000BF00E000BFE8376C
:1040DC00BD4680BD80B483B000AF786000BF0C37A4
:1040EC00BD4680BC704780B483B000AF786000BF21
:1040FC000C37BD4680BC704780B483B000AF78608D
:10410C000B467B8000BF0C37BD4680BC704780B52A
:10411C0086B000AFF860B9603B601346FB713BE0C2
:10412C003B6AB3F1FF3F37D0FDF724F802463B68FA
:10413C00D31A3A6A9A4202D33B6A002B01D1032369
:10414C003AE0FB681B68DB6803F00403002B23D008
:10415C00BB68802B20D0BB68402B1DD0FB681B6834
:10416C001B6803F00803082B16D100237B61FB6846
:10417C001B681B687B61FB681B685B687B617B69E8
:10418C00F86800F056F8FB6808225A64FB680022B5
:10419C0083F8402001230FE0FB681B681A68BB689A
:1041AC001340BA689A420CBF01230023DBB21A46B3
:1041BC00FB799A42B4D0002318461837BD4680BD0F
:1041CC0080B485B000AFF860B9601346FB80FB6823
:1041DC00BA689A62FB68FA889A85FB68FA88DA856D
:1041EC00FB6800225A64FB68222283F84220FB6899
:1041FC001B69002B07D0FB681B68DA68FB681B681F
:10420C0042F48072DA60FB681B685A69FB681B68B1
:10421C0042F001025A61FB681B68DA68FB681B6894
:10422C0042F02002DA60002318461437BD4680BCE9
:10423C00704780B495B000AF78607B681B680C3316
:10424C007B637B6B53E8003F3B633B6B23F49073C6
:10425C00FB647B681B680C33FA6C3A64FB63F96B88
:10426C003A6C41E80023BB63BB6B002BE5D17B6848
:10427C001B6814333B623B6A53E8003FFB61FB69EC
:10428C0023F00103BB647B681B681433BA6CFA62BD
:10429C00BB62B96AFA6A41E800237B627B6A002B35
:1042AC00E5D17B681B6B012B19D17B681B680C3328
:1042BC00FB60FB6853E8003FBB60BB6823F0100356
:1042CC007B647B681B680C337A6CBA617B6179699F
:1042DC00BA6941E800233B613B69002BE5D17B685F
:1042EC00202283F842207B6800221A6300BF5437D7
:1042FC00BD4680BC704780B584B000AF78607B68E9
:10430C005B6AFB60FB680022DA85FB680022DA84BA
:10431C00F868FFF7E8FE00BF1037BD4680BD80B4DB
:10432C0085B000AF78607B6893F84130DBB2212B0D
:10433C003ED17B689B68B3F5805F14D17B681B69A9
:10434C00002B10D17B681B6AFB60FB681B881A462C
:10435C007B681B68C2F308025A607B681B6A9A1C54
:10436C007B681A6208E07B681B6A591C7A681162C8
:10437C001A787B681B685A607B68DB8C9BB2013BAC
:10438C009BB27A681946D184002B0FD17B681B68CD
:10439C00DA687B681B6822F08002DA607B681B6835
:1043AC00DA687B681B6842F04002DA60002300E0A8
:1043BC00022318461437BD4680BC704780B582B0C6
:1043CC0000AF78607B681B68DA687B681B6822F03A
:1043DC004002DA607B68202283F841207868FFF77E
:1043EC0079FE002318460837BD4680BD80B58CB0D9
:1043FC0000AF78607B6893F84230DBB2222B40F040
:10440C00AE807B689B68B3F5805F17D17B681B69B6
:10441C00002B13D10023FB627B689B6ABB627B6819
:10442C001B685B689BB2C3F308039AB2BB6A1A8021
:10443C007B689B6A9A1C7B689A6226E07B689B6A05
:10444C00FB620023BB627B689B68B3F5805F07D07F
:10445C007B689B68002B0AD17B681B69002B06D1FB
:10446C007B681B685B68DAB2FB6A1A7008E07B68D1
:10447C001B685B68DBB203F07F03DAB2FB6A1A706D
:10448C007B689B6A5A1C7B689A627B68DB8D9BB24B
:10449C00013B9BB27A681946D185002B5DD17B68B4
:1044AC001B68DA687B681B6822F02002DA607B6884
:1044BC001B68DA687B681B6822F48072DA607B68A0
:1044CC001B685A697B681B6822F001025A617B6881
:1044DC00202283F842207B6800225A637B681B6B86
:1044EC00012B35D17B6800221A637B681B680C3367
:1044FC007B617B6953E8003F3B613B6923F0100310
:10450C007B627B681B680C337A6A3A62FB61F969DF
:10451C003A6A41E80023BB61BB69002BE5D17B689B
:10452C001B681B6803F01003102B0AD10023FB60DF
:10453C007B681B681B68FB607B681B685B68FB60A7
:10454C00FB687B689B8D19467868FFF7D5FD02E008
:10455C007868FCF781FB002302E0002300E00223D3
:10456C0018463037BD4680BD80B584B000AF78604A
:10457C007B681B681B6923F440517B68DA687B6895
:10458C001B680A431A617B689A687B681B691A432B
:10459C007B685B691343BB607B681B68DB6823F437
:1045AC00B05323F00C037A681268B9680B43D360DC
:1045BC007B681B685B6923F440717B689A697B6834
:1045CC001B680A435A617B681B682C4A934203D1CF
:1045DC00FEF786FFF86002E0FEF76EFFF860FA68FF
:1045EC0013469B0013449A001A447B685B689B003B
:1045FC00B2FBF3F3224AA2FB03235B091901FA680D
:10460C0013469B0013449A001A447B685B689B001A
:10461C00B2FBF3F21A4BA3FB02035B09642000FB11
:10462C0003F3D31A1B013233154AA2FB03235B0994
:10463C0003F0F0031944FA6813469B0013449A00E4
:10464C001A447B685B689B00B2FBF3F20C4BA3FB38
:10465C0002035B09642000FB03F3D31A1B01323302
:10466C00074AA2FB03235B0903F00F027B681B685C
:10467C000A449A6000BF1037BD4680BD0038014027
:10468C001F85EB51014B1868704700BF0C000020D0
:10469C0070B500260C4D0D4C641BA410A64209D11C
:1046AC0000F05CFC00260A4D0A4C641BA410A642C8
:1046BC0005D170BD55F8043B98470136EEE755F827
:1046CC00043B98470136F2E7D8500008D850000850
:1046DC00D8500008DC50000803460244934200D135
:1046EC00704703F8011BF9E700B59BB000910491EA
:1046FC006FF000410591029105490391694600F064
:10470C006FF80022009B1A701BB05DF804FB00BF11
:10471C000802FFFF13460A46014602480068FFF7ED
:10472C00E3BF00BF0C0000202DE9F0478E688246E5
:10473C009E420C4690461F4638D88A8912F4906FD8
:10474C0032D0256809690133A5EB010965694B4431
:10475C0005EB450505EBD5756D109D4238BF1D4623
:10476C00530531D5294600F053FB064650B90C23AE
:10477C004FF0FF30CAF80030A38943F04003A38107
:10478C00BDE8F0874A46216900F0CEFAA38923F4EC
:10479C00906343F08003A38126614E4426603E461D
:1047AC006561A5EB0905A560BE4200D93E463246BF
:1047BC004146206800F0C6FAA36822689B1B32446D
:1047CC000020A3602260DBE72A4600F07BFB064654
:1047DC000028E1D15046216900F0CEFAC7E700006D
:1047EC002DE9F04F98468B8907461B060D4614465B
:1047FC009DB00ED50B6963B9402100F009FB286010
:10480C00286120B90C233B604FF0FF30D1E04023EE
:10481C006B610023099320238DF8293030234FF04E
:10482C000109CDF80C80DFF8A4818DF82A302346DD
:10483C009A4613F8012B0AB1252AF9D1BAEB040BCD
:10484C000BD05B46224629463846FFF76DFF0130F8
:10485C0000F0AA80099A5A4409929AF80030002B69
:10486C0000F0A28000234FF0FF32CDE905230AF1BE
:10487C00010A049307938DF853301A93544605227A
:10488C0014F8011B514800F041FA049AD8B9D0062B
:10489C0044BF20238DF85330110744BF2B238DF8D0
:1048AC0053309AF800302A2B15D0544600204FF084
:1048BC000A0C079A214611F8013B303B092B4ED9C3
:1048CC00B0B1079214E0A0EB080309FA03F3134309
:1048DC00A2460493D2E7039B191D1B680391002B7E
:1048EC00BBBF5B4242F0020207930793B8BF04922E
:1048FC0023782E2B0CD163782A2B35D1039B0234D1
:10490C001A1D1B680392002BB8BF4FF0FF330593A1
:10491C00DFF8C8A003225046217800F0F7F940B127
:10492C004023A0EB0A0003FA00F0049B013403437C
:10493C00049314F8011B062225488DF8281000F06A
:10494C00E5F9002838D0234B1BBB039B073323F01E
:10495C00070308330393099B3344099367E70C4619
:10496C0001200CFB0232A5E700234FF00A0C19467C
:10497C0001340593204610F8012B303A092A03D94B
:10498C00002BC5D00591C3E7044601230CFB012184
:10499C00F0E703AB00932A4638460F4B04A9AFF35C
:1049AC000080421C0646D6D1AB895B063FF52CAF86
:1049BC0009981DB0BDE8F08F03AB00932A4638462A
:1049CC00054B04A900F07CF8EBE700BFA2500008EF
:1049DC00AC5000080000000035470008A850000843
:1049EC002DE9F047164699468A680B6907469342AB
:1049FC00B8BF1346336091F843200C46DDF8208095
:104A0C000AB1013333602368990642BF336802331D
:104A1C003360256815F0060506D104F1190AE36820
:104A2C0032689B1AAB4228DC94F84320131E226890
:104A3C0018BF012392062DD44946384604F143028F
:104A4C00C047013020D02368E56803F00603042B2F
:104A5C0018BF002532684FF00006A36808BFAD1AD6
:104A6C00226908BF25EAE5759342C4BF9B1AED186D
:104A7C001A34B5421AD1002008E0012352464946A7
:104A8C003846C047013003D14FF0FF30BDE8F08706
:104A9C000135C4E73020E11881F843005A1C94F822
:104AAC0045102244023382F84310C5E70123224605
:104ABC0049463846C0470130E6D00136D9E70000F8
:104ACC002DE9FF470C46277E9146782F80469A4663
:104ADC000C9904F1430207D8622F0AD8002F00F07A
:104AEC00D980582F00F0A48004F1420684F842705B
:104AFC003AE0A7F16303152BF6D801A050F823F088
:104B0C00654B0008794B0008F54A0008F54A000887
:104B1C00F54A0008F54A0008794B0008F54A0008E8
:104B2C00F54A0008F54A0008F54A0008874C0008C9
:104B3C00A94B0008694C0008F54A0008F54A000822
:104B4C00A94C0008F54A0008A94B0008F54A0008D2
:104B5C00F54A0008714C00080B6804F142061A1D56
:104B6C001B680A6084F842300123A4E025680868B9
:104B7C002E0600F104030AD505680B60002D03DA3C
:104B8C002D236D4284F843300A235E4819E015F05A
:104B9C00400F05680B6018BF2DB2EFE70B68256856
:104BAC00181D0860280601D51D6802E06906FBD5B2
:104BBC001D886F2F0CBF08230A235248002184F84C
:104BCC0043106668002EA8BF2168A660A4BF21F020
:104BDC00040121600DB9002E4DD01646B5FBF3F142
:104BEC0003FB1157C75D06F8017D2F46BB420D46EE
:104BFC00F4D9082B0BD12368DF0708D5236961682A
:104C0C009942DEBF302306F8013C06F1FF36921BB9
:104C1C0022614B4621464046CDF800A003AAFFF77F
:104C2C00DFFE01304CD14FF0FF3004B0BDE8F0870F
:104C3C00344884F845700E68236856F8045B1F06E8
:104C4C000E6014D5D90744BF43F0200323601DB96F
:104C5C00236823F0200323601023AFE7236843F07D
:104C6C00200323607823284884F84530E3E75E0668
:104C7C0048BFADB2E6E71646BBE70B6826681D1DBC
:104C8C0060690D6035061B6801D5186002E071067D
:104C9C00FBD51880002316462361BAE70B681A1D52
:104CAC000A601E6800213046626800F02FF808B1D7
:104CBC00801B606063682361002384F84330A8E79D
:104CCC003246494640462369D0470130ABD0236871
:104CDC009B0713D4E068039B9842B8BF1846A4E71F
:104CEC000123324649464046D04701309BD001351E
:104CFC00E36803995B1AAB42F2DCEBE7002504F1A5
:104D0C001906F5E7B3500008C4500008034610B567
:104D1C00C9B202449342184601D1002003E0047842
:104D2C0001338C42F6D110BD0A44914200F1FF339D
:104D3C0000D1704710B511F8014B914203F8014FA7
:104D4C00F9D110BD884210B501EB020402D984429E
:104D5C00234607D8431EA14208D011F8012B03F8B3
:104D6C00012FF8E7014602448A4200D110BD13F826
:104D7C00014D02F8014DF7E738B50546002943D03F
:104D8C0051F8043C0C1F002BB8BFE41800F0D0F80D
:104D9C001E4A1368104633B9636014602846BDE898
:104DAC00384000F0CBB8A3420AD92168621893426C
:104DBC0001BF1A685B685218226063600460EDE7FB
:104DCC001A465B680BB1A342FAD911685018A0427D
:104DDC000BD120680144501883421160DED1186851
:104DEC005B68014411605360D8E702D90C232B6037
:104DFC00D4E7206821188B4201BF19685B68091839
:104E0C00216063605460C9E738BD00BFD400002046
:104E1C00F8B5CD1C25F0030508350C2D38BF0C2535
:104E2C00002D064601DBA94203D90C233360002078
:104E3C00F8BD00F07DF821490A6814469CB9204F52
:104E4C003B6823B92146304600F062F838602946A9
:104E5C00304600F05DF8431C23D10C233046336000
:104E6C0000F06CF8E3E723685B1B17D40B2B03D91A
:104E7C0023601C44256004E06368A2420CBF0B60F5
:104E8C005360304600F05AF804F10B00231D20F05B
:104E9C000700C21ACCD01B1AA350C9E7224664687B
:104EAC00CCE7C41C24F00304A042E3D0211A304602
:104EBC0000F02EF80130DDD1CFE700BFD400002088
:104ECC00D8000020F8B5074614460E4621B9114605
:104EDC00BDE8F840FFF79CBF22B9FFF74DFF254610
:104EEC002846F8BD00F030F8A0420FD221463846D3
:104EFC00FFF78EFF05460028F2D031462246FFF719
:104F0C0013FF31463846FFF737FFE9E73546E7E749
:104F1C0038B50023054D044608462B60FCF770F8A5
:104F2C00431C02D12B6803B1236038BD6C040020F4
:104F3C00014800F011B800BF74040020014800F0D3
:104F4C000CB800BF7404002051F8043C181F002B4F
:104F5C00BCBF0B58C018704770477047F8B500BFFE
:104F6C00F8BC08BC9E467047F8B500BFF8BC08BC3E
:044F7C009E46704796
:104F80003D3D3D3D3D3D3D3D3D3D3D3D3D3D3D3D51
:104F90003D3D3D3D3D3D3D3D3D3D3D3D3D3D3D3D41
:104FA0003D3D3D3D3D3D3D3D3D3D3D3D3D0D0A00D1
:104FB0003D3D3D3D3D3D3D3D3D3D4769616F20747B
:104FC0006965702043414E20676975612032204E2B
:104FD0004F44453D3D3D3D3D3D3D3D3D3D0D0A0080
:104FE0003D3D3D3D3D3D3D3D3D3D20204441592021
:104FF0004C41204E4F44452031202D204E4F4445FA
:105000002054525559454E203D3D3D3D3D3D3D3D91
:105010003D3D0D0A000000004D657373616765201A
:10502000526563656976652053756363657373665E
:10503000756C6C793A202573200D0A005265706CEE
:105040006965642052656365697665642066726F80
:105050006D206E32202D202523580D0A00000000FF
:1050600043414E204572726F7220446574656374CB
:105070006564200D0A000000000000000000000030
:1050800001020304060708090000000001020304EE
:1050900002030405060708090A0B0C0D0E0F101079
:1050A0000102232D302B2000686C4C00656667459B
:1050B0004647003031323334353637383941424390
:1050C0004445460030313233343536373839616241
:0850D000636465660000000046
:0450D800310100089A
:0450DC000D010008BA
:1050E00000127A00100000000100000010000020F3
:1050F00000000000000000000000000000000000B0
:10510000000000000000000000000000000000009F
:10511000000000000000000000000000000000008F
:10512000000000000000000000000000000000007F
:10513000000000000000000000000000000000006F
:10514000000000000000000000000000000000005F
:04000005080010855A
:00000001FF
